:020000040800F2
:1000000038040120DD010008E5010008E7010008CF
:10001000E9010008EB010008ED0100080000000004
:10002000000000000000000000000000EF010008D8
:10003000F101000800000000F3010008F5010008CC
:10004000F7010008F7010008F7010008F7010008B0
:10005000F7010008F7010008F7010008F7010008A0
:10006000F7010008F7010008F7010008F701000890
:10007000F7010008F7010008F7010008F701000880
:10008000F7010008F7010008F7010008F701000870
:10009000F7010008F7010008F7010008F701000860
:1000A000F7010008F7010008F7010008F701000850
:1000B000F7010008F7010008F7010008F701000840
:1000C000F7010008F7010008F7010008F701000830
:1000D000F7010008F7010008F7010008F701000820
:1000E000F7010008F7010008F7010008F701000810
:1000F000F7010008F7010008F7010008F701000800
:10010000F7010008F7010008F7010008F7010008EF
:10011000F7010008F7010008F7010008F7010008DF
:10012000F7010008F7010008F7010008F7010008CF
:10013000F7010008F7010008F7010008F7010008BF
:10014000F7010008F7010008F7010008F7010008AF
:10015000F7010008F7010008F7010008F70100089F
:10016000F7010008F7010008F7010008F70100088F
:10017000F7010008F7010008F7010008000000007F
:10018000F7010008F7010008F7010008F70100086F
:10019000F7010008F7010008F7010008F70100085F
:1001A000F7010008F7010008F7010008F70100084F
:1001B000F7010008F7010008F7010008F70100083F
:1001C000F7010008F7010008DFF80CD000F018F87C
:1001D00000480047A902000838040120064880476B
:1001E00006480047FEE7FEE7FEE7FEE7FEE7FEE71C
:1001F000FEE7FEE7FEE7FEE725020008C90100086A
:10020000064C074D06E0E06840F0010394E8070063
:1002100098471034AC42F6D3FFF7DAFF2803000802
:10022000480300081448006840F470001249086050
:100230001248006840F001001049086000200F4992
:10024000083108600D4800680D4908400B490860F6
:100250000C48091D0860081F006820F48020091F51
:100260000860002005490C3108604FF00060024929
:10027000803908607047000088ED00E000380240D7
:10028000FFFFF6FE1030002402E008C8121F08C16C
:10029000002AFAD170477047002001E001C1121F07
:1002A000002AFBD17047000004201949086041F280
:1002B0005550184908600020091D086041F255504A
:1002C000091D08600020091D086020E0124813493C
:1002D000096850F821000F491431086000201049C6
:1002E000086004E00E480068401C0D4908600C4896
:1002F00000680C498842F5DB08480068401C074943
:100300000860084600680A2801D100200860DDE77F
:100310003038024000080240000001202C0001207B
:100320002800012020A10700480300080000012048
:1003300034000000880200087C030008340001201B
:1003400004040000980200087E0000003000000055
:100350006D00000079000000330000005B00000029
:100360005F000000700000007F00000073000000CC
:0C03700000000000000000000000000081
:04000005080001DD11
:00000001FF
